:020000040800F2
:1000000000000120E10E0008310F0008310F000848
:10001000310F0008310F0008310F00080000000008
:10002000000000000000000000000000310F000888
:10003000310F000800000000310F0008310F0008E8
:10004000310F0008310F0008310F0008310F000890
:10005000310F0008310F0008310F0008310F000880
:10006000310F0008310F0008310F0008310F000870
:10007000310F0008310F0008310F0008310F000860
:10008000310F0008310F0008310F00080000000098
:10009000000000000000000000000000310F000818
:1000A000310F0008310F0008310F0008310F000830
:1000B000310F0008310F0008310F0008310F000820
:1000C000310F0008310F0008310F0008310F000810
:1000D000310F0008310F0008310F00080000000048
:1000E000310F0008310F0008310F00080000000038
:1000F000000000000000000000000000310F0008B8
:1001000000000000310F0008310F0008310F000817
:1001100000000000000000000000000000000000DF
:10012000310F0008310F0008310F0008310F0008AF
:10013000310F000800000000000000000000000077
:10014000000000000000000000000000310F000867
:10015000310F0008310F0008310F0008310F00087F
:10016000310F0008310F00080000000000000000FF
:10017000000000000000000000000000000000007F
:1001800000000000310F0008000000000000000027
:04019000310F000823
:1001980010B5054C237833B9044B13B10448AFF3B9
:1001A80000800123237010BD000000200000000023
:1001B8002C10000808B5034B1BB103490348AFF3E3
:1001C800008008BD00000000040000202C1000087A
:1001D80081F0004102E000BF83F0004330B54FEAF0
:1001E80041044FEA430594EA050F08BF90EA020F5D
:1001F8001FBF54EA000C55EA020C7FEA645C7FEAF0
:10020800655C00F0E2804FEA5454D4EB5555B8BF12
:100218006D420CDD2C4480EA020281EA030382EA83
:10022800000083EA010180EA020281EA0303362D15
:1002380088BF30BD11F0004F4FEA01314FF4801CE8
:100248004CEA113102D0404261EB410113F0004FFA
:100258004FEA03334CEA133302D0524263EB4303B1
:1002680094EA050F00F0A780A4F10104D5F1200E4F
:100278000DDB02FA0EFC22FA05F2801841F10001AA
:1002880003FA0EF2801843FA05F359410EE0A5F17E
:1002980020050EF1200E012A03FA0EFC28BF4CF0AF
:1002A800020C43FA05F3C01851EBE37101F0004565
:1002B80007D54FF0000EDCF1000C7EEB00006EEB72
:1002C8000101B1F5801F1BD3B1F5001F0CD34908FC
:1002D8005FEA30004FEA3C0C04F101044FEA445253
:1002E80012F5800F80F09A80BCF1004F08BF5FEADA
:1002F800500C50F1000041EB045141EA050130BDBA
:100308005FEA4C0C404141EB010111F4801FA4F15C
:100318000104E9D191F0000F04BF01460020B1FAB1
:1003280081F308BF2033A3F10B03B3F120020CDAE9
:100338000C3208DD02F1140CC2F10C0201FA0CF0C7
:1003480021FA02F10CE002F11402D8BFC2F1200C2C
:1003580001FA02F120FA0CFCDCBF41EA0C019040E2
:10036800E41AA2BF01EB0451294330BD6FEA04042B
:100378001F3C1CDA0C340EDC04F11404C4F1200216
:1003880020FA04F001FA02F340EA030021FA04F328
:1003980045EA030130BDC4F10C04C4F1200220FA7F
:1003A80002F001FA04F340EA0300294630BD21FABD
:1003B80004F0294630BD94F0000F83F4801306BF83
:1003C80081F480110134013D4EE77FEA645C18BF77
:1003D8007FEA655C29D094EA050F08BF90EA020F0E
:1003E80005D054EA000C04BF1946104630BD91EA06
:1003F800030F1EBF0021002030BD5FEA545C05D109
:100408004000494128BF41F0004130BD14F5800447
:100418003CBF01F5801130BD01F0004545F0FE41BB
:1004280041F470014FF0000030BD7FEA645C1ABFF0
:10043800194610467FEA655C1CBF0B46024650EA27
:10044800013406BF52EA033591EA030F41F4002153
:1004580030BD00BF90F0000F04BF0021704730B5D9
:100468004FF4806404F132044FF000054FF00001AE
:1004780050E700BF90F0000F04BF0021704730B56F
:100488004FF4806404F1320410F0004548BF404244
:100498004FF000013EE700BF42004FEAE2014FEA99
:1004A80031014FEA02701FBF12F07F4393F07F4F74
:1004B80081F06051704732F07F4208BF704793F077
:1004C8007F4F04BF41F40021704730B54FF460748A
:1004D80001F0004521F000411CE700BF50EA01028D
:1004E80008BF704730B54FF000050AE050EA010236
:1004F80008BF704730B511F0004502D5404261EBA6
:1005080041014FF4806404F132045FEA915C3FF4E6
:10051800D8AE4FF003025FEADC0C18BF03325FEA83
:10052800DC0C18BF033202EBDC02C2F1200300FA34
:1005380003FC20FA02F001FA03FE40EA0E0021FA59
:1005480002F11444BDE600BF70B54FF0FF0C4CF447
:10055800E06C1CEA11541DBF1CEA135594EA0C0FF9
:1005680095EA0C0F00F0DEF82C4481EA030621EA34
:100578004C5123EA4C5350EA013518BF52EA03356F
:1005880041F4801143F4801338D0A0FB02CE4FF021
:100598000005E1FB02E506F00042E0FB03E54FF051
:1005A8000006E1FB03569CF0000F18BF4EF0010E49
:1005B800A4F1FF04B6F5007F64F5407404D25FEA45
:1005C8004E0E6D4146EB060642EAC62141EA5551F8
:1005D8004FEAC52040EA5E504FEACE2EB4F1FD0C3A
:1005E80088BFBCF5E06F1ED8BEF1004F08BF5FEAB8
:1005F800500E50F1000041EB045170BD06F000466A
:1006080046EA010140EA020081EA0301B4EB5C0416
:10061800C2BFD4EB0C0541EA045170BD41F480110E
:100628004FF0000E013C00F3AB8014F1360FDEBF33
:10063800002001F0004170BDC4F10004203C35DA0F
:100648000C341BDC04F11404C4F1200500FA05F392
:1006580020FA04F001FA05F240EA020001F0004233
:1006680021F0004110EBD37021FA04F642EB0601A9
:100678005EEA430E08BF20EAD37070BDC4F10C04D3
:10068800C4F1200500FA04F320FA05F001FA04F297
:1006980040EA020001F0004110EBD37041F1000183
:1006A8005EEA430E08BF20EAD37070BDC4F120058E
:1006B80000FA05F24EEA020E20FA04F301FA05F2F6
:1006C80043EA020321FA04F001F0004121FA04F29E
:1006D80020EA020000EBD3705EEA430E08BF20EA6E
:1006E800D37070BD94F0000F0FD101F000464000A8
:1006F80041EB010111F4801F08BF013CF7D041EA2A
:10070800060195F0000F18BF704703F0004652002D
:1007180043EB030313F4801F08BF013DF7D043EAFE
:100728000603704794EA0C0F0CEA135518BF95EAB4
:100738000C0F0CD050EA410618BF52EA4306D1D13B
:1007480081EA030101F000414FF0000070BD50EA5A
:10075800410606BF1046194652EA430619D094EAE4
:100768000C0F02D150EA013613D195EA0C0F05D1CE
:1007780052EA03361CBF104619460AD181EA030122
:1007880001F0004141F0FE4141F470014FF00000DA
:1007980070BD41F0FE4141F4780170BD70B54FF075
:1007A800FF0C4CF4E06C1CEA11541DBF1CEA1355F5
:1007B80094EA0C0F95EA0C0F00F0A7F8A4EB0504D7
:1007C80081EA030E52EA03354FEA013100F08880CE
:1007D8004FEA03334FF0805545EA131343EA126397
:1007E8004FEA022245EA111545EA10654FEA00264C
:1007F8000EF000419D4208BF964244F1FD0404F505
:10080800407402D25B084FEA3202B61A65EB030560
:100818005B084FEA32024FF480104FF4002CB6EB1D
:10082800020E75EB030E22BFB61A754640EA0C009D
:100838005B084FEA3202B6EB020E75EB030E22BFDD
:10084800B61A754640EA5C005B084FEA3202B6EB1E
:10085800020E75EB030E22BFB61A754640EA9C00DD
:100868005B084FEA3202B6EB020E75EB030E22BFAD
:10087800B61A754640EADC0055EA060E18D04FEA6B
:10088800051545EA16754FEA06164FEAC30343EA0B
:1008980052734FEAC2025FEA1C1CC0D111F4801FD8
:1008A8000BD141EA00014FF000004FF0004CB6E7D1
:1008B80011F4801F04BF01430020B4F1FD0C88BF70
:1008C800BCF5E06F3FF6AFAEB5EB030C04BFB6EB7B
:1008D800020C5FEA500C50F1000041EB045170BD6E
:1008E8000EF0004E4EEA113114EB5C04C2BFD4EB9B
:1008F8000C0541EA045170BD41F480114FF0000E1F
:10090800013C90E645EA060E8DE60CEA135594EA9A
:100918000C0F08BF95EA0C0F3FF43BAF94EA0C0F9D
:100928000AD150EA01347FF434AF95EA0C0F7FF412
:1009380025AF104619462CE795EA0C0F06D152EA66
:1009480003353FF4FDAE1046194622E750EA41064A
:1009580018BF52EA43067FF4C5AE50EA41047FF45B
:100968000DAF52EA43057FF4EBAE12E74A0011D20D
:1009780012F5001211D20DD56FF47873B3EB6252F1
:100988000ED44FEAC12343F0004343EA505323FAFD
:1009980002F070474FF00000704750EA013002D172
:1009A8004FF0FF3070474FF0000070470000000024
:1009B80000B583B000238DF804308DF80530062388
:1009C8008DF80630012101A800F068F80DF1030048
:1009D80000F0D0F89DF80330012BF7D10E4C2046DB
:1009E80000F0D6F823884FF4617000FB03F0FFF79E
:1009F80041FD07A3D3E90023FFF7D0FEFFF7B6FFB9
:100A0800208000F01BF9208800F094F9DEE700BF91
:100A18000000000080FED7401C000020034AD2F8E6
:100A2800883043F47003C2F88830704700ED00E066
:100A3800B8B101282AD1184B5A6B42F001025A6307
:100A48005A6B22F002025A635A6B22F004025A636C
:100A58005A6B22F008025A635A6B22F010025A634A
:100A680014E00D4B5A6B22F001025A635A6B22F0C4
:100A780002025A635A6B22F004025A635A6B22F03C
:100A880008025A635A6B22F010025A63024A9368AA
:100A980043F08043936070470020014070B5324AAC
:100AA800136B43F001031363304B1D684E1C012484
:100AB80004FA06F635431D601D688E1CB4402C43AD
:100AC8001C60DC6824F00C04DC60536C43F4807315
:100AD8005364274B9A6822F400629A60DA6A22F417
:100AE8008012DA629A6842F001029A60037873B958
:100AF8001F4A536823F04073536043785BB3012B5C
:100B08002ED11B4A936843F00203936028E0012B1F
:100B18000DD0022B15D0032BEFD1154B5A6842F09C
:100B280040725A605A6842F040725A60E5E7104BCA
:100B38005A6822F040725A605A6842F040725A600D
:100B4800DBE70B4B5A6842F040725A605A6822F051
:100B580040725A60D1E7064A936823F00203936013
:100B6800C8B2FFF765FF70BD0038024000000240C0
:100B780000200140054B1B6813F0020F02D100232F
:100B88000370704701230370704700BF00200140C5
:100B9800044BDA6C02809A6842F080429A60002026
:100BA800704700BF0020014038B50546224C00229E
:100BB8000121204600F074F900221146204600F079
:100BC8006FF9002300E0013341F287329342FADDE6
:100BD800002300E0013341F287329342FADD01221B
:100BE8000221154800F05CF9002300E0013341F2CE
:100BF80087329342FADD032408E0E31E01229A407B
:100C08002A40E1B20C4800F04BF901340A2CF4DD1B
:100C1800002300E0013341F287329342FADD0022DB
:100C28000221054800F03CF9002300E0013341F2BD
:100C380087329342FADD38BD0004024010B5144CE7
:100C4800002301221946204600F0C2F800230122A1
:100C58001146204600F0BCF800230122022120465C
:100C680000F0B6F8032406E000230122E1B20848A8
:100C780000F0AEF801340A2CF6DD3820FFF794FFB7
:100C88000C20FFF791FF0120FFF78EFF10BD00BF7A
:100C98000004024038B505461F4C002201212046B9
:100CA80000F0FEF801220021204600F0F9F80023A8
:100CB80000E0013341F287329342FADD012202213A
:100CC800154800F0EDF8002300E0013341F28732C7
:100CD8009342FADD032408E0E31E01229A402A40E9
:100CE800E1B20D4800F0DCF801340A2CF4DD0023F1
:100CF80000E0013341F287329342FADD00220221FB
:100D0800054800F0CDF8002300E0013341F28732B6
:100D18009342FADD38BD00BF0004024038B50546ED
:100D2800002403E0FFF7B6FF0134E4B2285D002891
:100D3800F8D138BD00B585B00A22694600F032F90D
:100D48006846FFF7EBFF05B05DF804FB30B40568B3
:100D58004C000123A3401D4215D00568013401232E
:100D680003FA04F4254211D19A4201D901200BE07B
:100D7800446803FA01F524EA050402FA01F1214363
:100D88004160184600E0002030BC70470020FBE7B7
:100D980070B40468490001238B401C4211D10568D6
:100DA8004E1C0124B44025420ED1022A0ED8C56833
:100DB800234325EA030302FA01F11943C160012024
:100DC80000E0002070BC70470020FBE70120F9E735
:100DD80070B52C4CA04214D02B4CA04229D02B4CDF
:100DE800A0422CD02A4CA0422FD02A4CA04232D06C
:100DF800294CA0420AD1294D2C6B44F080042C6365
:100E080004E0264D2C6B44F001042C634ABB0668B1
:100E18004D00012404FA05F226EA02060660066877
:100E28002544AC4026EA040404601A46FFF7B0FFE4
:100E380070BD1A4D2C6B44F002042C63E6E7174D85
:100E48002C6B44F004042C63E0E7144D2C6B44F045
:100E580008042C63DAE7114D2C6B44F010042C6362
:100E6800D4E702684D00012404FA05F63243026013
:100E780002682544AC4022EA040404601A46FFF7DD
:100E880065FFD5E700000240000402400008024068
:100E9800000C024000100240001C024000380240D2
:100EA80030B404684D000123AB401C4211D042B954
:100EB8004269012303FA01F122EA0101416118465E
:100EC80008E04269012303FA01F111434161184620
:100ED80000E0002030BC7047DFF834D00D480E49E0
:100EE8000E4A002302E0D458C4500433C4188C427C
:100EF800F9D30B4A0B4C002301E013600432A242E1
:100F0800FBD3FFF78BFD00F011F8FFF751FD704799
:100F180000000120000000200000002074100008DC
:100F28000000002020000020FEE7000070B50D4EF4
:100F38000D4CA41BA4100025A54209D10B4E0C4C46
:100F480000F070F8A41BA4100025A54205D170BDBF
:100F580056F8253098470135EEE756F8253098477A
:100F68000135F2E76C1000086C1000086C100008DE
:100F780070100008931E222B10B50C4604D90023CC
:100F88000B701C46204610BD0A2A09D1002807DA32
:100F98002D230B7040420121214400F005F8F1E7B0
:100FA8000021F9E7FFF7E6BFF0B51D4B8BB005460A
:100FB8000C466E4603F1200C18685968374603C77B
:100FC800083363453E46F7D118681B793B71931E79
:100FD800222B38604FF0000304D923701C462046AA
:100FE8000BB0F0BD661EB5FBF2F00AAF02FB105560
:100FF8003D44591C15F8285C06F8015F054668B998
:10100800605423442246191B101B8142E7DD1178E6
:10101800187802F8010B03F80119F4E70B46E2E728
:1010280044100008F8B500BFF8BC08BC9E467047DD
:0C103800F8B500BFF8BC08BC9E4670472D
:10104400303132333435363738396162636465663A
:101054006768696A6B6C6D6E6F70717273747576A4
:081064007778797A00000000A2
:04106C00BD010008BA
:0410700099010008DA
:0400000508000EE100
:00000001FF
